{"abi":[{"type":"function","name":"increment","inputs":[],"outputs":[],"stateMutability":"nonpayable"},{"type":"function","name":"number","inputs":[],"outputs":[{"name":"","type":"uint256","internalType":"uint256"}],"stateMutability":"view"},{"type":"function","name":"number2","inputs":[],"outputs":[{"name":"","type":"uint256","internalType":"uint256"}],"stateMutability":"view"},{"type":"function","name":"number3","inputs":[],"outputs":[{"name":"","type":"uint256","internalType":"uint256"}],"stateMutability":"view"},{"type":"function","name":"setNumber","inputs":[{"name":"newNumber","type":"uint256","internalType":"uint256"}],"outputs":[],"stateMutability":"nonpayable"}],"bytecode":{"object":"0x608060405234801561001057600080fd5b5061011f806100206000396000f3fe6080604052348015600f57600080fd5b506004361060505760003560e01c80633fb5c1cb1460555780638381f58a14606757806390c52443146081578063d09de08a146089578063d6980dfd14608f575b600080fd5b6065606036600460ab565b600055565b005b606f60005481565b60405190815260200160405180910390f35b606f60015481565b60656097565b606f60025481565b60008054908060a48360c3565b9190505550565b60006020828403121560bc57600080fd5b5035919050565b60006001820160e257634e487b7160e01b600052601160045260246000fd5b506001019056fea26469706673582212208ea880a17eb711668fc8eaac9682e4e6bbec4f126095a1335c80df64d2d9569964736f6c63430008170033","linkReferences":{}},"assembly":"    /* \"src/Counter.sol\":65:318  contract Counter {... */\n  mstore(0x40, 0x80)\n  callvalue\n  dup1\n  iszero\n  tag_1\n  jumpi\n  0x00\n  dup1\n  revert\ntag_1:\n  pop\n  dataSize(sub_0)\n  dup1\n  dataOffset(sub_0)\n  0x00\n  codecopy\n  0x00\n  return\nstop\n\nsub_0: assembly {\n        /* \"src/Counter.sol\":65:318  contract Counter {... */\n      mstore(0x40, 0x80)\n      callvalue\n      dup1\n      iszero\n      tag_1\n      jumpi\n      0x00\n      dup1\n      revert\n    tag_1:\n      pop\n      jumpi(tag_2, lt(calldatasize, 0x04))\n      shr(0xe0, calldataload(0x00))\n      dup1\n      0x3fb5c1cb\n      eq\n      tag_3\n      jumpi\n      dup1\n      0x8381f58a\n      eq\n      tag_4\n      jumpi\n      dup1\n      0x90c52443\n      eq\n      tag_5\n      jumpi\n      dup1\n      0xd09de08a\n      eq\n      tag_6\n      jumpi\n      dup1\n      0xd6980dfd\n      eq\n      tag_7\n      jumpi\n    tag_2:\n      0x00\n      dup1\n      revert\n        /* \"src/Counter.sol\":177:257  function setNumber(uint256 newNumber) public {... */\n    tag_3:\n      tag_8\n      tag_9\n      calldatasize\n      0x04\n      tag_10\n      jump\t// in\n    tag_9:\n        /* \"src/Counter.sol\":232:238  number */\n      0x00\n        /* \"src/Counter.sol\":232:250  number = newNumber */\n      sstore\n        /* \"src/Counter.sol\":177:257  function setNumber(uint256 newNumber) public {... */\n      jump\n    tag_8:\n      stop\n        /* \"src/Counter.sol\":88:109  uint256 public number */\n    tag_4:\n      tag_12\n      sload(0x00)\n      dup2\n      jump\n    tag_12:\n      mload(0x40)\n        /* \"#utility.yul\":345:370   */\n      swap1\n      dup2\n      mstore\n        /* \"#utility.yul\":333:335   */\n      0x20\n        /* \"#utility.yul\":318:336   */\n      add\n        /* \"src/Counter.sol\":88:109  uint256 public number */\n      mload(0x40)\n      dup1\n      swap2\n      sub\n      swap1\n      return\n        /* \"src/Counter.sol\":115:137  uint256 public number2 */\n    tag_5:\n      tag_12\n      sload(0x01)\n      dup2\n      jump\n        /* \"src/Counter.sol\":263:316  function increment() public {... */\n    tag_6:\n      tag_8\n      tag_20\n      jump\t// in\n        /* \"src/Counter.sol\":143:165  uint256 public number3 */\n    tag_7:\n      tag_12\n      sload(0x02)\n      dup2\n      jump\n        /* \"src/Counter.sol\":263:316  function increment() public {... */\n    tag_20:\n        /* \"src/Counter.sol\":301:307  number */\n      0x00\n        /* \"src/Counter.sol\":301:309  number++ */\n      dup1\n      sload\n      swap1\n        /* \"src/Counter.sol\":301:307  number */\n      dup1\n        /* \"src/Counter.sol\":301:309  number++ */\n      tag_26\n      dup4\n      tag_27\n      jump\t// in\n    tag_26:\n      swap2\n      swap1\n      pop\n      sstore\n      pop\n        /* \"src/Counter.sol\":263:316  function increment() public {... */\n      jump\t// out\n        /* \"#utility.yul\":14:194   */\n    tag_10:\n        /* \"#utility.yul\":73:79   */\n      0x00\n        /* \"#utility.yul\":126:128   */\n      0x20\n        /* \"#utility.yul\":114:123   */\n      dup3\n        /* \"#utility.yul\":105:112   */\n      dup5\n        /* \"#utility.yul\":101:124   */\n      sub\n        /* \"#utility.yul\":97:129   */\n      slt\n        /* \"#utility.yul\":94:146   */\n      iszero\n      tag_30\n      jumpi\n        /* \"#utility.yul\":142:143   */\n      0x00\n        /* \"#utility.yul\":139:140   */\n      dup1\n        /* \"#utility.yul\":132:144   */\n      revert\n        /* \"#utility.yul\":94:146   */\n    tag_30:\n      pop\n        /* \"#utility.yul\":165:188   */\n      calldataload\n      swap2\n        /* \"#utility.yul\":14:194   */\n      swap1\n      pop\n      jump\t// out\n        /* \"#utility.yul\":381:613   */\n    tag_27:\n        /* \"#utility.yul\":420:423   */\n      0x00\n        /* \"#utility.yul\":441:458   */\n      0x01\n      dup3\n      add\n        /* \"#utility.yul\":438:578   */\n      tag_33\n      jumpi\n        /* \"#utility.yul\":500:510   */\n      0x4e487b71\n        /* \"#utility.yul\":495:498   */\n      0xe0\n        /* \"#utility.yul\":491:511   */\n      shl\n        /* \"#utility.yul\":488:489   */\n      0x00\n        /* \"#utility.yul\":481:512   */\n      mstore\n        /* \"#utility.yul\":535:539   */\n      0x11\n        /* \"#utility.yul\":532:533   */\n      0x04\n        /* \"#utility.yul\":525:540   */\n      mstore\n        /* \"#utility.yul\":563:567   */\n      0x24\n        /* \"#utility.yul\":560:561   */\n      0x00\n        /* \"#utility.yul\":553:568   */\n      revert\n        /* \"#utility.yul\":438:578   */\n    tag_33:\n      pop\n        /* \"#utility.yul\":605:606   */\n      0x01\n        /* \"#utility.yul\":594:607   */\n      add\n      swap1\n        /* \"#utility.yul\":381:613   */\n      jump\t// out\n\n    auxdata: 0xa26469706673582212208ea880a17eb711668fc8eaac9682e4e6bbec4f126095a1335c80df64d2d9569964736f6c63430008170033\n}\n","methodIdentifiers":{"increment()":"d09de08a","number()":"8381f58a","number2()":"90c52443","number3()":"d6980dfd","setNumber(uint256)":"3fb5c1cb"},"id":22}