{"abi":[{"type":"function","name":"getNewValue","inputs":[],"outputs":[{"name":"","type":"uint256","internalType":"uint256"}],"stateMutability":"view"}],"bytecode":{"object":"0x7f9a8b46e3f9d7ebfb60f37d28af3fe1681bede73900000000000000000000000060a0908152663c656d23029ab060b4526365798eb060d4526054608081905260f4604052902061005490620f424090610069565b60005534801561006357600080fd5b5061008b565b60008261008657634e487b7160e01b600052601260045260246000fd5b500690565b6078806100996000396000f3fe6080604052348015600f57600080fd5b506004361060285760003560e01c806354fee64414602d575b600080fd5b60005460405190815260200160405180910390f3fea2646970667358221220f37a634d87a5964e0cc96a40b779829ca9b9af4813158f963d8db091dd76826864736f6c63430008140033","linkReferences":{}},"methodIdentifiers":{"getNewValue()":"54fee644"},"id":20}