{"abi":[{"type":"constructor","inputs":[{"name":"registry","type":"address","internalType":"address"}],"stateMutability":"nonpayable"},{"type":"function","name":"solveChallenge","inputs":[{"name":"valueAtStorageLocationSevenSevenSeven","type":"uint256","internalType":"uint256"},{"name":"yourTwitterHandle","type":"string","internalType":"string"}],"outputs":[],"stateMutability":"nonpayable"},{"type":"error","name":"S3__WrongValue","inputs":[]}],"bytecode":{"object":"0x608060405234801561001057600080fd5b5060405161026b38038061026b83398101604081905261002f9161003b565b607b610309555061006b565b60006020828403121561004d57600080fd5b81516001600160a01b038116811461006457600080fd5b9392505050565b6101f18061007a6000396000f3fe608060405234801561001057600080fd5b506004361061002b5760003560e01c806329a30a7014610030575b600080fd5b61004361003e3660046100de565b610045565b005b6103095482811461006957604051636429bffb60e11b815260040160405180910390fd5b6040516bffffffffffffffffffffffff193360601b166020820152446034820152426054820152600090620f4240906074016040516020818303038152906040528051906020012060001c6100be9190610199565b6103095550505050565b634e487b7160e01b600052604160045260246000fd5b600080604083850312156100f157600080fd5b82359150602083013567ffffffffffffffff8082111561011057600080fd5b818501915085601f83011261012457600080fd5b813581811115610136576101366100c8565b604051601f8201601f19908116603f0116810190838211818310171561015e5761015e6100c8565b8160405282815288602084870101111561017757600080fd5b8260208601602083013760006020848301015280955050505050509250929050565b6000826101b657634e487b7160e01b600052601260045260246000fd5b50069056fea2646970667358221220645abb3f3759be899423a55992a7bc9328ff646c4c90466b3559ef5327d33f3164736f6c63430008140033","linkReferences":{}},"methodIdentifiers":{"solveChallenge(uint256,string)":"29a30a70"},"storageLayout":{"storage":[],"types":{}},"id":0}